{
  "contractName": "Remittance",
  "abi": [
    {
      "constant": true,
      "inputs": [
        {
          "name": "",
          "type": "address"
        },
        {
          "name": "",
          "type": "bytes32"
        }
      ],
      "name": "usedPasswords",
      "outputs": [
        {
          "name": "",
          "type": "bool"
        }
      ],
      "payable": false,
      "stateMutability": "view",
      "type": "function"
    },
    {
      "constant": true,
      "inputs": [
        {
          "name": "",
          "type": "address"
        },
        {
          "name": "",
          "type": "bytes32"
        }
      ],
      "name": "withdrawals",
      "outputs": [
        {
          "name": "to",
          "type": "address"
        },
        {
          "name": "value",
          "type": "uint256"
        },
        {
          "name": "deadline",
          "type": "uint256"
        },
        {
          "name": "active",
          "type": "bool"
        }
      ],
      "payable": false,
      "stateMutability": "view",
      "type": "function"
    },
    {
      "constant": false,
      "inputs": [],
      "name": "kill",
      "outputs": [],
      "payable": false,
      "stateMutability": "nonpayable",
      "type": "function"
    },
    {
      "constant": true,
      "inputs": [],
      "name": "getOwner",
      "outputs": [
        {
          "name": "",
          "type": "address"
        }
      ],
      "payable": false,
      "stateMutability": "view",
      "type": "function"
    },
    {
      "constant": false,
      "inputs": [
        {
          "name": "_passwordHash",
          "type": "bytes32"
        },
        {
          "name": "_to",
          "type": "address"
        },
        {
          "name": "_deadline",
          "type": "uint256"
        },
        {
          "name": "_active",
          "type": "bool"
        }
      ],
      "name": "setWithdrawal",
      "outputs": [
        {
          "name": "",
          "type": "bool"
        }
      ],
      "payable": true,
      "stateMutability": "payable",
      "type": "function"
    },
    {
      "constant": false,
      "inputs": [
        {
          "name": "_exchangeAddress",
          "type": "address"
        },
        {
          "name": "_password1",
          "type": "string"
        },
        {
          "name": "_password2",
          "type": "string"
        }
      ],
      "name": "withdraw",
      "outputs": [
        {
          "name": "",
          "type": "bool"
        }
      ],
      "payable": false,
      "stateMutability": "nonpayable",
      "type": "function"
    },
    {
      "constant": false,
      "inputs": [
        {
          "name": "newOwner",
          "type": "address"
        }
      ],
      "name": "transferOwnership",
      "outputs": [],
      "payable": false,
      "stateMutability": "nonpayable",
      "type": "function"
    },
    {
      "inputs": [],
      "payable": false,
      "stateMutability": "nonpayable",
      "type": "constructor"
    },
    {
      "anonymous": false,
      "inputs": [
        {
          "indexed": false,
          "name": "amount",
          "type": "uint256"
        },
        {
          "indexed": false,
          "name": "value",
          "type": "address"
        }
      ],
      "name": "logWithdrawal",
      "type": "event"
    },
    {
      "anonymous": false,
      "inputs": [
        {
          "indexed": false,
          "name": "from",
          "type": "address"
        },
        {
          "indexed": false,
          "name": "to",
          "type": "address"
        },
        {
          "indexed": false,
          "name": "value",
          "type": "uint256"
        },
        {
          "indexed": false,
          "name": "deadline",
          "type": "uint256"
        },
        {
          "indexed": false,
          "name": "active",
          "type": "bool"
        }
      ],
      "name": "logSetWithdrawal",
      "type": "event"
    },
    {
      "anonymous": false,
      "inputs": [],
      "name": "Killed",
      "type": "event"
    },
    {
      "anonymous": false,
      "inputs": [
        {
          "indexed": true,
          "name": "oldOwner",
          "type": "address"
        },
        {
          "indexed": true,
          "name": "newOwner",
          "type": "address"
        }
      ],
      "name": "OwnershipTransfered",
      "type": "event"
    }
  ],
  "bytecode": "0x6060604052341561000f57600080fd5b336000806101000a81548173ffffffffffffffffffffffffffffffffffffffff021916908373ffffffffffffffffffffffffffffffffffffffff160217905550610db68061005e6000396000f300606060405260043610610082576000357c0100000000000000000000000000000000000000000000000000000000900463ffffffff1680620ad2db146100875780632e97dfd5146100e557806341c0e1b514610184578063893d20e8146101995780638f4af797146101ee578063c0dc126b14610255578063f2fde38b1461032c575b600080fd5b341561009257600080fd5b6100cb600480803573ffffffffffffffffffffffffffffffffffffffff1690602001909190803560001916906020019091905050610365565b604051808215151515815260200191505060405180910390f35b34156100f057600080fd5b610129600480803573ffffffffffffffffffffffffffffffffffffffff1690602001909190803560001916906020019091905050610394565b604051808573ffffffffffffffffffffffffffffffffffffffff1673ffffffffffffffffffffffffffffffffffffffff1681526020018481526020018381526020018215151515815260200194505050505060405180910390f35b341561018f57600080fd5b6101976103fe565b005b34156101a457600080fd5b6101ac6104a5565b604051808273ffffffffffffffffffffffffffffffffffffffff1673ffffffffffffffffffffffffffffffffffffffff16815260200191505060405180910390f35b61023b60048080356000191690602001909190803573ffffffffffffffffffffffffffffffffffffffff1690602001909190803590602001909190803515159060200190919050506104ce565b604051808215151515815260200191505060405180910390f35b341561026057600080fd5b610312600480803573ffffffffffffffffffffffffffffffffffffffff1690602001909190803590602001908201803590602001908080601f0160208091040260200160405190810160405280939291908181526020018383808284378201915050505050509190803590602001908201803590602001908080601f01602080910402602001604051908101604052809392919081815260200183838082843782019150505050505091905050610876565b604051808215151515815260200191505060405180910390f35b341561033757600080fd5b610363600480803573ffffffffffffffffffffffffffffffffffffffff16906020019091905050610c35565b005b60026020528160005260406000206020528060005260406000206000915091509054906101000a900460ff1681565b6001602052816000526040600020602052806000526040600020600091509150508060000160009054906101000a900473ffffffffffffffffffffffffffffffffffffffff16908060010154908060020154908060030160009054906101000a900460ff16905084565b6000809054906101000a900473ffffffffffffffffffffffffffffffffffffffff1673ffffffffffffffffffffffffffffffffffffffff163373ffffffffffffffffffffffffffffffffffffffff1614151561045957600080fd5b7f0f8eeedbc400fd6686703559f58d1e6143fdaed533f19a86c93d67a2fe4fb33160405160405180910390a161048d6104a5565b73ffffffffffffffffffffffffffffffffffffffff16ff5b60008060009054906101000a900473ffffffffffffffffffffffffffffffffffffffff16905090565b6000600260003373ffffffffffffffffffffffffffffffffffffffff1673ffffffffffffffffffffffffffffffffffffffff1681526020019081526020016000206000866000191660001916815260200190815260200160002060009054906101000a900460ff1615151561054257600080fd5b60008473ffffffffffffffffffffffffffffffffffffffff161415151561056857600080fd5b60008311151561057757600080fd5b83600160003373ffffffffffffffffffffffffffffffffffffffff1673ffffffffffffffffffffffffffffffffffffffff1681526020019081526020016000206000876000191660001916815260200190815260200160002060000160006101000a81548173ffffffffffffffffffffffffffffffffffffffff021916908373ffffffffffffffffffffffffffffffffffffffff16021790555034600160003373ffffffffffffffffffffffffffffffffffffffff1673ffffffffffffffffffffffffffffffffffffffff1681526020019081526020016000206000876000191660001916815260200190815260200160002060010181905550824201600160003373ffffffffffffffffffffffffffffffffffffffff1673ffffffffffffffffffffffffffffffffffffffff168152602001908152602001600020600087600019166000191681526020019081526020016000206002018190555081600160003373ffffffffffffffffffffffffffffffffffffffff1673ffffffffffffffffffffffffffffffffffffffff1681526020019081526020016000206000876000191660001916815260200190815260200160002060030160006101000a81548160ff0219169083151502179055506001600260003373ffffffffffffffffffffffffffffffffffffffff1673ffffffffffffffffffffffffffffffffffffffff1681526020019081526020016000206000876000191660001916815260200190815260200160002060006101000a81548160ff0219169083151502179055507f3cf8451696457c62dbdcd344718e50906b11668e9b75123762ac66530831576a3385348686604051808673ffffffffffffffffffffffffffffffffffffffff1673ffffffffffffffffffffffffffffffffffffffff1681526020018573ffffffffffffffffffffffffffffffffffffffff1673ffffffffffffffffffffffffffffffffffffffff168152602001848152602001838152602001821515151581526020019550505050505060405180910390a160019050949350505050565b600080600084846040518083805190602001908083835b6020831015156108b2578051825260208201915060208101905060208303925061088d565b6001836020036101000a03801982511681845116808217855250505050505090500182805190602001908083835b60208310151561090557805182526020820191506020810190506020830392506108e0565b6001836020036101000a03801982511681845116808217855250505050505090500192505050604051809103902090506000600160008873ffffffffffffffffffffffffffffffffffffffff1673ffffffffffffffffffffffffffffffffffffffff168152602001908152602001600020600083600019166000191681526020019081526020016000206001015411151561099f57600080fd5b3373ffffffffffffffffffffffffffffffffffffffff16600160008873ffffffffffffffffffffffffffffffffffffffff1673ffffffffffffffffffffffffffffffffffffffff1681526020019081526020016000206000836000191660001916815260200190815260200160002060000160009054906101000a900473ffffffffffffffffffffffffffffffffffffffff1673ffffffffffffffffffffffffffffffffffffffff16141515610a5457600080fd5b42600160008873ffffffffffffffffffffffffffffffffffffffff1673ffffffffffffffffffffffffffffffffffffffff168152602001908152602001600020600083600019166000191681526020019081526020016000206002015410151515610abe57600080fd5b600160008773ffffffffffffffffffffffffffffffffffffffff1673ffffffffffffffffffffffffffffffffffffffff168152602001908152602001600020600082600019166000191681526020019081526020016000206001015491506000600160008873ffffffffffffffffffffffffffffffffffffffff1673ffffffffffffffffffffffffffffffffffffffff16815260200190815260200160002060008360001916600019168152602001908152602001600020600101819055503373ffffffffffffffffffffffffffffffffffffffff166108fc839081150290604051600060405180830381858888f193505050501515610bbd57600080fd5b7f9fe6ba0fac1f65031e606d0ab8f86179cd4fa523f8bcc54a117f2763008c98228233604051808381526020018273ffffffffffffffffffffffffffffffffffffffff1673ffffffffffffffffffffffffffffffffffffffff1681526020019250505060405180910390a16001925050509392505050565b6000809054906101000a900473ffffffffffffffffffffffffffffffffffffffff1673ffffffffffffffffffffffffffffffffffffffff163373ffffffffffffffffffffffffffffffffffffffff16141515610c9057600080fd5b600073ffffffffffffffffffffffffffffffffffffffff168173ffffffffffffffffffffffffffffffffffffffff1614151515610ccc57600080fd5b8073ffffffffffffffffffffffffffffffffffffffff166000809054906101000a900473ffffffffffffffffffffffffffffffffffffffff1673ffffffffffffffffffffffffffffffffffffffff167f0d18b5fd22306e373229b9439188228edca81207d1667f604daf6cef8aa3ee6760405160405180910390a3806000806101000a81548173ffffffffffffffffffffffffffffffffffffffff021916908373ffffffffffffffffffffffffffffffffffffffff160217905550505600a165627a7a7230582080fc2af040d646bc8a638bc7e9586f97e434ce4c03ae4665cc48a69cd6e3b55c0029",
  "source": "pragma solidity ^0.4.18;\n\nimport \"./Mortal.sol\";\n\ncontract Remittance is Mortal {\n\n  struct Withdrawal {\n    address to;\n    uint value;\n    uint deadline;\n    bool active;\n  }\n\nmapping(address => mapping(bytes32 => Withdrawal)) public withdrawals;\nmapping(address => mapping(bytes32 => bool)) public usedPasswords;\n\nevent logWithdrawal(uint amount, address value);\nevent logSetWithdrawal(address from, address to, uint value, uint deadline, bool active);\n\n  function setWithdrawal(\n    bytes32 _passwordHash, \n    address _to, \n    uint _deadline, \n    bool _active\n  )\n  payable\n  public\n  returns (bool)\n  {\n    require (!usedPasswords[msg.sender][_passwordHash]);\n    require(_to != 0);\n    require(_deadline>0);\n\n    withdrawals[msg.sender][_passwordHash].to = _to;\n    withdrawals[msg.sender][_passwordHash].value= msg.value;\n    withdrawals[msg.sender][_passwordHash].deadline= now + _deadline;\n    withdrawals[msg.sender][_passwordHash].active = _active;\n    usedPasswords[msg.sender][_passwordHash]=true;\n\n    logSetWithdrawal(msg.sender, _to, msg.value, _deadline,_active );\n\n    return true;\n  }\n\nfunction withdraw(address _exchangeAddress, string _password1, string _password2) \n  public \n  returns (bool)\n  {\n    uint amount;\n    bytes32 hashedPassword = keccak256(_password1, _password2);\n    \n    //why are these require statements not working as expected?\n    require(withdrawals[_exchangeAddress][hashedPassword].value>0);\n    require(withdrawals[_exchangeAddress][hashedPassword].to == msg.sender);\n    require(withdrawals[_exchangeAddress][hashedPassword].deadline >= now);\n    \n    amount = withdrawals[_exchangeAddress][hashedPassword].value;\n    withdrawals[_exchangeAddress][hashedPassword].value = 0;\n    msg.sender.transfer(amount);\n\n    logWithdrawal(amount, msg.sender);\n    \n    return true;\n  }\n  function Remittance() {\n    // constructor\n  }\n}\n",
  "sourcePath": "/Users/Hannes/Documents/Remittance2/contracts/Remittance.sol",
  "compiler": {
    "name": "solc",
    "version": "0.4.18+commit.9cf6e910.Emscripten.clang"
  },
  "schemaVersion": "1.0.1",
  "updatedAt": "2018-01-09T11:25:43.867Z"
}